:1000000009C021C020C088C01EC01DC01CC01BC0AC
:100010001AC019C011241FBECFE9CDBF20E0A4E64D
:10002000B0E001C01D92A736B207E1F710E0A0E6EC
:10003000B0E0EEEEF3E002C005900D92A436B107F9
:10004000D9F7A5D0D2C1DCCF1092640090916400A2
:100050009817E0F3089585B7877E806185BF85B7DF
:10006000806285BF85B7806285BF889585B78F7DA3
:1000700085BF85B78F7D85BF089552D166E070E05A
:10008000D7D08F5F0895833069F020F4813091F0EC
:1000900038F40895853051F038F0863061F408C0A6
:1000A00084E008958CE0089586E008958EE0089538
:1000B00087E0089588E00895CF93DF931F92CDB72E
:1000C000DD278983C098C49880E090E0298130E0E2
:1000D000082E02C0359527950A94E2F720FF02C04A
:1000E000C39A01C0C398C09AC09801968830910500
:1000F00069F7C49A0F90DF91CF910895CF93DF9362
:10010000D62FC1DFC82F8D2FBEDF8295807F8C2B2D
:10011000D3DFDF91CF9108951F920F920FB60F9208
:1001200011242F933F934F935F936F937F938F93FC
:100130009F93AF93BF93EF93FF93809164008F5F82
:100140008093640080916500909166000196909381
:10015000660080936500809165009091660081152E
:10016000904121F460E080E0C9DF75DFFF91EF91FD
:10017000BF91AF919F918F917F916F915F914F91BF
:100180003F912F910F900FBE0F901F9018952CE06C
:1001900088E190E00FB6F894A89581BD0FBE21BD0F
:1001A0008DE081BD8DE387BB86E288BB83E083BFA2
:1001B00089B7826089BF7894B1994DDFD0E000E0C3
:1001C00001C0D02FA895B199FDCF10926600109272
:1001D0006500C02FA895D11106C04FDF182F4DDF45
:1001E000612F8CDF0CC0D13021F447DF602F86DF18
:1001F00006C0D23021F441DF682F802F7FDFC23369
:1002000038F4B19902C08CD00BC081E01DDF07C06B
:10021000CE3318F487E018DF02C08FE015DFCF5F20
:10022000C234C0F2B199CECFDF5FD33050F6CACF1F
:1002300097FB072E16F4009406D077FD08D00BD05C
:1002400007FC05D03EF4909581959F4F08957095D9
:1002500061957F4F0895AA1BBB1B51E107C0AA1FE0
:10026000BB1FA617B70710F0A61BB70B881F991F57
:100270005A95A9F780959095BC01CD0108958F926C
:100280009F92AF92BF92CF92DF92EF92FF92CF9365
:10029000DF93EC01688179818A819B816115710509
:1002A0008105910521F464E279ED8BE597E02DE17C
:1002B00033EF41E050E05CD049015A0127EA31E4D4
:1002C00040E050E03CD06B017C012CEE34EF4FEF6E
:1002D0005FEFC501B40133D0AB01BC01C40ED51E24
:1002E000E61EF71EF7FE06C081E0C81AD108E10835
:1002F00080E8F80AC882D982EA82FB82E894D7F8BB
:10030000EE24FF24C601DF91CF91FF90EF90DF90A4
:10031000CF90BF90AF909F908F900895B0DF0895D9
:1003200080E690E0ACDF0895A0E0B0E0809360004C
:1003300090936100A0936200B09363000895FF273B
:10034000EE27BB27AA2760FF04C0A20FB31FE41F3C
:10035000F51F220F331F441F551F969587957795DC
:10036000679589F70097760771F7CF01BD0108956A
:10037000052E97FB16F4009406D057FD0CD013D031
:1003800007FC09D07EF490958095709561957F4F1C
:100390008F4F9F4F089550954095309521953F4F31
:1003A0004F4F5F4F0895A1E21A2EAA1BBB1BFD0100
:1003B0000DC0AA1FBB1FEE1FFF1FA217B307E40744
:1003C000F50720F0A21BB30BE40BF50B661F771F9C
:1003D000881F991F1A9469F760957095809590957C
:0E03E0009B01AC01BD01CF010895F894FFCF41
:0403EE00010000000A
:00000001FF
